{
  "_format": "hh-sol-artifact-1",
  "description": "ZetoFactory V0 based on ZetoTokenFactory v0.2.1",
  "contractName": "ZetoFactory",
  "sourceName": "contracts/domains/zeto/ZetoFactory.sol",
  "abi": [
    {
      "inputs": [],
      "name": "FailedDeployment",
      "type": "error"
    },
    {
      "inputs": [
        {
          "internalType": "uint256",
          "name": "balance",
          "type": "uint256"
        },
        {
          "internalType": "uint256",
          "name": "needed",
          "type": "uint256"
        }
      ],
      "name": "InsufficientBalance",
      "type": "error"
    },
    {
      "inputs": [
        {
          "internalType": "address",
          "name": "owner",
          "type": "address"
        }
      ],
      "name": "OwnableInvalidOwner",
      "type": "error"
    },
    {
      "inputs": [
        {
          "internalType": "address",
          "name": "account",
          "type": "address"
        }
      ],
      "name": "OwnableUnauthorizedAccount",
      "type": "error"
    },
    {
      "anonymous": false,
      "inputs": [
        {
          "indexed": true,
          "internalType": "address",
          "name": "previousOwner",
          "type": "address"
        },
        {
          "indexed": true,
          "internalType": "address",
          "name": "newOwner",
          "type": "address"
        }
      ],
      "name": "OwnershipTransferred",
      "type": "event"
    },
    {
      "anonymous": false,
      "inputs": [
        {
          "indexed": true,
          "internalType": "bytes32",
          "name": "txId",
          "type": "bytes32"
        },
        {
          "indexed": true,
          "internalType": "address",
          "name": "instance",
          "type": "address"
        },
        {
          "indexed": false,
          "internalType": "bytes",
          "name": "config",
          "type": "bytes"
        }
      ],
      "name": "PaladinRegisterSmartContract_V0",
      "type": "event"
    },
    {
      "anonymous": false,
      "inputs": [
        {
          "indexed": true,
          "internalType": "address",
          "name": "zetoToken",
          "type": "address"
        }
      ],
      "name": "ZetoTokenDeployed",
      "type": "event"
    },
    {
      "inputs": [
        {
          "internalType": "bytes32",
          "name": "transactionId",
          "type": "bytes32"
        },
        {
          "internalType": "string",
          "name": "tokenName",
          "type": "string"
        },
        {
          "internalType": "string",
          "name": "name",
          "type": "string"
        },
        {
          "internalType": "string",
          "name": "symbol",
          "type": "string"
        },
        {
          "internalType": "address",
          "name": "initialOwner",
          "type": "address"
        },
        {
          "internalType": "bytes",
          "name": "data",
          "type": "bytes"
        }
      ],
      "name": "deploy",
      "outputs": [],
      "stateMutability": "nonpayable",
      "type": "function"
    },
    {
      "inputs": [
        {
          "internalType": "bytes32",
          "name": "transactionId",
          "type": "bytes32"
        },
        {
          "internalType": "string",
          "name": "tokenName",
          "type": "string"
        },
        {
          "internalType": "string",
          "name": "name",
          "type": "string"
        },
        {
          "internalType": "string",
          "name": "symbol",
          "type": "string"
        },
        {
          "internalType": "address",
          "name": "initialOwner",
          "type": "address"
        },
        {
          "internalType": "bytes",
          "name": "data",
          "type": "bytes"
        },
        {
          "internalType": "bool",
          "name": "isNonFungible",
          "type": "bool"
        }
      ],
      "name": "deploy",
      "outputs": [],
      "stateMutability": "nonpayable",
      "type": "function"
    },
    {
      "inputs": [
        {
          "internalType": "string",
          "name": "name",
          "type": "string"
        },
        {
          "internalType": "string",
          "name": "symbol",
          "type": "string"
        },
        {
          "internalType": "string",
          "name": "tokenImplementation",
          "type": "string"
        },
        {
          "internalType": "address",
          "name": "initialOwner",
          "type": "address"
        }
      ],
      "name": "deployZetoFungibleToken",
      "outputs": [
        {
          "internalType": "address",
          "name": "",
          "type": "address"
        }
      ],
      "stateMutability": "nonpayable",
      "type": "function"
    },
    {
      "inputs": [
        {
          "internalType": "string",
          "name": "name",
          "type": "string"
        },
        {
          "internalType": "string",
          "name": "symbol",
          "type": "string"
        },
        {
          "internalType": "string",
          "name": "tokenImplementation",
          "type": "string"
        },
        {
          "internalType": "address",
          "name": "initialOwner",
          "type": "address"
        }
      ],
      "name": "deployZetoNonFungibleToken",
      "outputs": [
        {
          "internalType": "address",
          "name": "",
          "type": "address"
        }
      ],
      "stateMutability": "nonpayable",
      "type": "function"
    },
    {
      "inputs": [],
      "name": "owner",
      "outputs": [
        {
          "internalType": "address",
          "name": "",
          "type": "address"
        }
      ],
      "stateMutability": "view",
      "type": "function"
    },
    {
      "inputs": [
        {
          "internalType": "string",
          "name": "name",
          "type": "string"
        },
        {
          "components": [
            {
              "internalType": "address",
              "name": "implementation",
              "type": "address"
            },
            {
              "components": [
                {
                  "internalType": "address",
                  "name": "verifier",
                  "type": "address"
                },
                {
                  "internalType": "address",
                  "name": "depositVerifier",
                  "type": "address"
                },
                {
                  "internalType": "address",
                  "name": "withdrawVerifier",
                  "type": "address"
                },
                {
                  "internalType": "address",
                  "name": "lockVerifier",
                  "type": "address"
                },
                {
                  "internalType": "address",
                  "name": "burnVerifier",
                  "type": "address"
                },
                {
                  "internalType": "address",
                  "name": "batchVerifier",
                  "type": "address"
                },
                {
                  "internalType": "address",
                  "name": "batchWithdrawVerifier",
                  "type": "address"
                },
                {
                  "internalType": "address",
                  "name": "batchLockVerifier",
                  "type": "address"
                },
                {
                  "internalType": "address",
                  "name": "batchBurnVerifier",
                  "type": "address"
                }
              ],
              "internalType": "struct IZetoInitializable.VerifiersInfo",
              "name": "verifiers",
              "type": "tuple"
            }
          ],
          "internalType": "struct ZetoTokenFactory.ImplementationInfo",
          "name": "implementation",
          "type": "tuple"
        }
      ],
      "name": "registerImplementation",
      "outputs": [],
      "stateMutability": "nonpayable",
      "type": "function"
    },
    {
      "inputs": [],
      "name": "renounceOwnership",
      "outputs": [],
      "stateMutability": "nonpayable",
      "type": "function"
    },
    {
      "inputs": [
        {
          "internalType": "address",
          "name": "newOwner",
          "type": "address"
        }
      ],
      "name": "transferOwnership",
      "outputs": [],
      "stateMutability": "nonpayable",
      "type": "function"
    }
  ],
  "bytecode": "0x608060405234801561000f575f5ffd5b50335f73ffffffffffffffffffffffffffffffffffffffff168173ffffffffffffffffffffffffffffffffffffffff1603610081575f6040517f1e4fbdf70000000000000000000000000000000000000000000000000000000081526004016100789190610196565b60405180910390fd5b6100908161009660201b60201c565b506101af565b5f5f5f9054906101000a900473ffffffffffffffffffffffffffffffffffffffff169050815f5f6101000a81548173ffffffffffffffffffffffffffffffffffffffff021916908373ffffffffffffffffffffffffffffffffffffffff1602179055508173ffffffffffffffffffffffffffffffffffffffff168173ffffffffffffffffffffffffffffffffffffffff167f8be0079c531659141344cd1fd0a4f28419497f9722a3daafe3b4186f6b6457e060405160405180910390a35050565b5f73ffffffffffffffffffffffffffffffffffffffff82169050919050565b5f61018082610157565b9050919050565b61019081610176565b82525050565b5f6020820190506101a95f830184610187565b92915050565b6124e8806101bc5f395ff3fe608060405234801561000f575f5ffd5b5060043610610086575f3560e01c8063715018a611610059578063715018a61461010e5780638da5cb5b14610118578063be17954b14610136578063f2fde38b1461016657610086565b806305c98c831461008a578063180dd117146100a65780633924a044146100d6578063653bf99c146100f2575b5f5ffd5b6100a4600480360381019061009f919061183a565b610182565b005b6100c060048036038101906100bb9190611933565b6101fc565b6040516100cd91906119fa565b60405180910390f35b6100f060048036038101906100eb9190611b42565b610914565b005b61010c60048036038101906101079190611bd2565b610cec565b005b610116610d6e565b005b610120610d81565b60405161012d91906119fa565b60405180910390f35b610150600480360381019061014b9190611933565b610da8565b60405161015d91906119fa565b60405180910390f35b610180600480360381019061017b9190611cdf565b6112e8565b005b3073ffffffffffffffffffffffffffffffffffffffff1663653bf99c8787878787875f6040518863ffffffff1660e01b81526004016101c79796959493929190611df4565b5f604051808303815f87803b1580156101de575f5ffd5b505af11580156101f0573d5f5f3e3d5ffd5b50505050505050505050565b5f5f60018460405161020e9190611eb7565b90815260200160405180910390206040518060400160405290815f82015f9054906101000a900473ffffffffffffffffffffffffffffffffffffffff1673ffffffffffffffffffffffffffffffffffffffff1673ffffffffffffffffffffffffffffffffffffffff16815260200160018201604051806101200160405290815f82015f9054906101000a900473ffffffffffffffffffffffffffffffffffffffff1673ffffffffffffffffffffffffffffffffffffffff1673ffffffffffffffffffffffffffffffffffffffff168152602001600182015f9054906101000a900473ffffffffffffffffffffffffffffffffffffffff1673ffffffffffffffffffffffffffffffffffffffff1673ffffffffffffffffffffffffffffffffffffffff168152602001600282015f9054906101000a900473ffffffffffffffffffffffffffffffffffffffff1673ffffffffffffffffffffffffffffffffffffffff1673ffffffffffffffffffffffffffffffffffffffff168152602001600382015f9054906101000a900473ffffffffffffffffffffffffffffffffffffffff1673ffffffffffffffffffffffffffffffffffffffff1673ffffffffffffffffffffffffffffffffffffffff168152602001600482015f9054906101000a900473ffffffffffffffffffffffffffffffffffffffff1673ffffffffffffffffffffffffffffffffffffffff1673ffffffffffffffffffffffffffffffffffffffff168152602001600582015f9054906101000a900473ffffffffffffffffffffffffffffffffffffffff1673ffffffffffffffffffffffffffffffffffffffff1673ffffffffffffffffffffffffffffffffffffffff168152602001600682015f9054906101000a900473ffffffffffffffffffffffffffffffffffffffff1673ffffffffffffffffffffffffffffffffffffffff1673ffffffffffffffffffffffffffffffffffffffff168152602001600782015f9054906101000a900473ffffffffffffffffffffffffffffffffffffffff1673ffffffffffffffffffffffffffffffffffffffff1673ffffffffffffffffffffffffffffffffffffffff168152602001600882015f9054906101000a900473ffffffffffffffffffffffffffffffffffffffff1673ffffffffffffffffffffffffffffffffffffffff1673ffffffffffffffffffffffffffffffffffffffff16815250508152505090505f73ffffffffffffffffffffffffffffffffffffffff16815f015173ffffffffffffffffffffffffffffffffffffffff16036105ff576040517f08c379a00000000000000000000000000000000000000000000000000000000081526004016105f690611f3d565b60405180910390fd5b5f73ffffffffffffffffffffffffffffffffffffffff1681602001516020015173ffffffffffffffffffffffffffffffffffffffff1603610675576040517f08c379a000000000000000000000000000000000000000000000000000000000815260040161066c90611fcb565b60405180910390fd5b5f73ffffffffffffffffffffffffffffffffffffffff1681602001516040015173ffffffffffffffffffffffffffffffffffffffff16036106eb576040517f08c379a00000000000000000000000000000000000000000000000000000000081526004016106e290612059565b60405180910390fd5b5f73ffffffffffffffffffffffffffffffffffffffff16816020015160a0015173ffffffffffffffffffffffffffffffffffffffff1603610761576040517f08c379a0000000000000000000000000000000000000000000000000000000008152600401610758906120e7565b60405180910390fd5b5f73ffffffffffffffffffffffffffffffffffffffff16816020015160c0015173ffffffffffffffffffffffffffffffffffffffff16036107d7576040517f08c379a00000000000000000000000000000000000000000000000000000000081526004016107ce90612175565b60405180910390fd5b5f6107e4825f015161136c565b90505f73ffffffffffffffffffffffffffffffffffffffff168173ffffffffffffffffffffffffffffffffffffffff1603610854576040517f08c379a000000000000000000000000000000000000000000000000000000000815260040161084b90612203565b60405180910390fd5b8073ffffffffffffffffffffffffffffffffffffffff1663f586acdb88888786602001516040518563ffffffff1660e01b815260040161089794939291906122e5565b5f604051808303815f87803b1580156108ae575f5ffd5b505af11580156108c0573d5f5f3e3d5ffd5b505050508073ffffffffffffffffffffffffffffffffffffffff167f61a122822c33eb587240ac03c263df8e525c975793c9d3118d54888abdb0362760405160405180910390a28092505050949350505050565b61091c61137e565b5f73ffffffffffffffffffffffffffffffffffffffff16815f015173ffffffffffffffffffffffffffffffffffffffff160361098d576040517f08c379a0000000000000000000000000000000000000000000000000000000008152600401610984906123a7565b60405180910390fd5b5f73ffffffffffffffffffffffffffffffffffffffff1681602001515f015173ffffffffffffffffffffffffffffffffffffffff1603610a02576040517f08c379a00000000000000000000000000000000000000000000000000000000081526004016109f990612435565b60405180910390fd5b80600183604051610a139190611eb7565b90815260200160405180910390205f820151815f015f6101000a81548173ffffffffffffffffffffffffffffffffffffffff021916908373ffffffffffffffffffffffffffffffffffffffff1602179055506020820151816001015f820151815f015f6101000a81548173ffffffffffffffffffffffffffffffffffffffff021916908373ffffffffffffffffffffffffffffffffffffffff1602179055506020820151816001015f6101000a81548173ffffffffffffffffffffffffffffffffffffffff021916908373ffffffffffffffffffffffffffffffffffffffff1602179055506040820151816002015f6101000a81548173ffffffffffffffffffffffffffffffffffffffff021916908373ffffffffffffffffffffffffffffffffffffffff1602179055506060820151816003015f6101000a81548173ffffffffffffffffffffffffffffffffffffffff021916908373ffffffffffffffffffffffffffffffffffffffff1602179055506080820151816004015f6101000a81548173ffffffffffffffffffffffffffffffffffffffff021916908373ffffffffffffffffffffffffffffffffffffffff16021790555060a0820151816005015f6101000a81548173ffffffffffffffffffffffffffffffffffffffff021916908373ffffffffffffffffffffffffffffffffffffffff16021790555060c0820151816006015f6101000a81548173ffffffffffffffffffffffffffffffffffffffff021916908373ffffffffffffffffffffffffffffffffffffffff16021790555060e0820151816007015f6101000a81548173ffffffffffffffffffffffffffffffffffffffff021916908373ffffffffffffffffffffffffffffffffffffffff160217905550610100820151816008015f6101000a81548173ffffffffffffffffffffffffffffffffffffffff021916908373ffffffffffffffffffffffffffffffffffffffff16021790555050509050505050565b5f8115610d0657610cff86868987610da8565b9050610d15565b610d12868689876101fc565b90505b8073ffffffffffffffffffffffffffffffffffffffff16887fd77f43af9eba6f7c0ea72f4bad6bc58c3bd49e2cb299e128c91293b7ebc17f4385604051610d5c9190612453565b60405180910390a35050505050505050565b610d7661137e565b610d7f5f611405565b565b5f5f5f9054906101000a900473ffffffffffffffffffffffffffffffffffffffff16905090565b5f5f600184604051610dba9190611eb7565b90815260200160405180910390206040518060400160405290815f82015f9054906101000a900473ffffffffffffffffffffffffffffffffffffffff1673ffffffffffffffffffffffffffffffffffffffff1673ffffffffffffffffffffffffffffffffffffffff16815260200160018201604051806101200160405290815f82015f9054906101000a900473ffffffffffffffffffffffffffffffffffffffff1673ffffffffffffffffffffffffffffffffffffffff1673ffffffffffffffffffffffffffffffffffffffff168152602001600182015f9054906101000a900473ffffffffffffffffffffffffffffffffffffffff1673ffffffffffffffffffffffffffffffffffffffff1673ffffffffffffffffffffffffffffffffffffffff168152602001600282015f9054906101000a900473ffffffffffffffffffffffffffffffffffffffff1673ffffffffffffffffffffffffffffffffffffffff1673ffffffffffffffffffffffffffffffffffffffff168152602001600382015f9054906101000a900473ffffffffffffffffffffffffffffffffffffffff1673ffffffffffffffffffffffffffffffffffffffff1673ffffffffffffffffffffffffffffffffffffffff168152602001600482015f9054906101000a900473ffffffffffffffffffffffffffffffffffffffff1673ffffffffffffffffffffffffffffffffffffffff1673ffffffffffffffffffffffffffffffffffffffff168152602001600582015f9054906101000a900473ffffffffffffffffffffffffffffffffffffffff1673ffffffffffffffffffffffffffffffffffffffff1673ffffffffffffffffffffffffffffffffffffffff168152602001600682015f9054906101000a900473ffffffffffffffffffffffffffffffffffffffff1673ffffffffffffffffffffffffffffffffffffffff1673ffffffffffffffffffffffffffffffffffffffff168152602001600782015f9054906101000a900473ffffffffffffffffffffffffffffffffffffffff1673ffffffffffffffffffffffffffffffffffffffff1673ffffffffffffffffffffffffffffffffffffffff168152602001600882015f9054906101000a900473ffffffffffffffffffffffffffffffffffffffff1673ffffffffffffffffffffffffffffffffffffffff1673ffffffffffffffffffffffffffffffffffffffff16815250508152505090505f73ffffffffffffffffffffffffffffffffffffffff16815f015173ffffffffffffffffffffffffffffffffffffffff16036111ab576040517f08c379a00000000000000000000000000000000000000000000000000000000081526004016111a290611f3d565b60405180910390fd5b5f6111b8825f015161136c565b90505f73ffffffffffffffffffffffffffffffffffffffff168173ffffffffffffffffffffffffffffffffffffffff1603611228576040517f08c379a000000000000000000000000000000000000000000000000000000000815260040161121f90612203565b60405180910390fd5b8073ffffffffffffffffffffffffffffffffffffffff1663f586acdb88888786602001516040518563ffffffff1660e01b815260040161126b94939291906122e5565b5f604051808303815f87803b158015611282575f5ffd5b505af1158015611294573d5f5f3e3d5ffd5b505050508073ffffffffffffffffffffffffffffffffffffffff167f61a122822c33eb587240ac03c263df8e525c975793c9d3118d54888abdb0362760405160405180910390a28092505050949350505050565b6112f061137e565b5f73ffffffffffffffffffffffffffffffffffffffff168173ffffffffffffffffffffffffffffffffffffffff1603611360575f6040517f1e4fbdf700000000000000000000000000000000000000000000000000000000815260040161135791906119fa565b60405180910390fd5b61136981611405565b50565b5f611377825f6114c6565b9050919050565b6113866115bb565b73ffffffffffffffffffffffffffffffffffffffff166113a4610d81565b73ffffffffffffffffffffffffffffffffffffffff1614611403576113c76115bb565b6040517f118cdaa70000000000000000000000000000000000000000000000000000000081526004016113fa91906119fa565b60405180910390fd5b565b5f5f5f9054906101000a900473ffffffffffffffffffffffffffffffffffffffff169050815f5f6101000a81548173ffffffffffffffffffffffffffffffffffffffff021916908373ffffffffffffffffffffffffffffffffffffffff1602179055508173ffffffffffffffffffffffffffffffffffffffff168173ffffffffffffffffffffffffffffffffffffffff167f8be0079c531659141344cd1fd0a4f28419497f9722a3daafe3b4186f6b6457e060405160405180910390a35050565b5f8147101561150e5747826040517fcf47918100000000000000000000000000000000000000000000000000000000815260040161150592919061248b565b60405180910390fd5b763d602d80600a3d3981f3363d3d373d3d3d363d730000008360601b60e81c175f526e5af43d82803e903d91602b57fd5bf38360781b176020526037600983f090505f73ffffffffffffffffffffffffffffffffffffffff168173ffffffffffffffffffffffffffffffffffffffff16036115b5576040517fb06ebf3d00000000000000000000000000000000000000000000000000000000815260040160405180910390fd5b92915050565b5f33905090565b5f604051905090565b5f5ffd5b5f5ffd5b5f819050919050565b6115e5816115d3565b81146115ef575f5ffd5b50565b5f81359050611600816115dc565b92915050565b5f5ffd5b5f5ffd5b5f601f19601f8301169050919050565b7f4e487b71000000000000000000000000000000000000000000000000000000005f52604160045260245ffd5b6116548261160e565b810181811067ffffffffffffffff821117156116735761167261161e565b5b80604052505050565b5f6116856115c2565b9050611691828261164b565b919050565b5f67ffffffffffffffff8211156116b0576116af61161e565b5b6116b98261160e565b9050602081019050919050565b828183375f83830152505050565b5f6116e66116e184611696565b61167c565b9050828152602081018484840111156117025761170161160a565b5b61170d8482856116c6565b509392505050565b5f82601f83011261172957611728611606565b5b81356117398482602086016116d4565b91505092915050565b5f73ffffffffffffffffffffffffffffffffffffffff82169050919050565b5f61176b82611742565b9050919050565b61177b81611761565b8114611785575f5ffd5b50565b5f8135905061179681611772565b92915050565b5f67ffffffffffffffff8211156117b6576117b561161e565b5b6117bf8261160e565b9050602081019050919050565b5f6117de6117d98461179c565b61167c565b9050828152602081018484840111156117fa576117f961160a565b5b6118058482856116c6565b509392505050565b5f82601f83011261182157611820611606565b5b81356118318482602086016117cc565b91505092915050565b5f5f5f5f5f5f60c08789031215611854576118536115cb565b5b5f61186189828a016115f2565b965050602087013567ffffffffffffffff811115611882576118816115cf565b5b61188e89828a01611715565b955050604087013567ffffffffffffffff8111156118af576118ae6115cf565b5b6118bb89828a01611715565b945050606087013567ffffffffffffffff8111156118dc576118db6115cf565b5b6118e889828a01611715565b93505060806118f989828a01611788565b92505060a087013567ffffffffffffffff81111561191a576119196115cf565b5b61192689828a0161180d565b9150509295509295509295565b5f5f5f5f6080858703121561194b5761194a6115cb565b5b5f85013567ffffffffffffffff811115611968576119676115cf565b5b61197487828801611715565b945050602085013567ffffffffffffffff811115611995576119946115cf565b5b6119a187828801611715565b935050604085013567ffffffffffffffff8111156119c2576119c16115cf565b5b6119ce87828801611715565b92505060606119df87828801611788565b91505092959194509250565b6119f481611761565b82525050565b5f602082019050611a0d5f8301846119eb565b92915050565b5f5ffd5b5f6101208284031215611a2d57611a2c611a13565b5b611a3861012061167c565b90505f611a4784828501611788565b5f830152506020611a5a84828501611788565b6020830152506040611a6e84828501611788565b6040830152506060611a8284828501611788565b6060830152506080611a9684828501611788565b60808301525060a0611aaa84828501611788565b60a08301525060c0611abe84828501611788565b60c08301525060e0611ad284828501611788565b60e083015250610100611ae784828501611788565b6101008301525092915050565b5f6101408284031215611b0a57611b09611a13565b5b611b14604061167c565b90505f611b2384828501611788565b5f830152506020611b3684828501611a17565b60208301525092915050565b5f5f6101608385031215611b5957611b586115cb565b5b5f83013567ffffffffffffffff811115611b7657611b756115cf565b5b611b8285828601611715565b9250506020611b9385828601611af4565b9150509250929050565b5f8115159050919050565b611bb181611b9d565b8114611bbb575f5ffd5b50565b5f81359050611bcc81611ba8565b92915050565b5f5f5f5f5f5f5f60e0888a031215611bed57611bec6115cb565b5b5f611bfa8a828b016115f2565b975050602088013567ffffffffffffffff811115611c1b57611c1a6115cf565b5b611c278a828b01611715565b965050604088013567ffffffffffffffff811115611c4857611c476115cf565b5b611c548a828b01611715565b955050606088013567ffffffffffffffff811115611c7557611c746115cf565b5b611c818a828b01611715565b9450506080611c928a828b01611788565b93505060a088013567ffffffffffffffff811115611cb357611cb26115cf565b5b611cbf8a828b0161180d565b92505060c0611cd08a828b01611bbe565b91505092959891949750929550565b5f60208284031215611cf457611cf36115cb565b5b5f611d0184828501611788565b91505092915050565b611d13816115d3565b82525050565b5f81519050919050565b5f82825260208201905092915050565b5f5b83811015611d50578082015181840152602081019050611d35565b5f8484015250505050565b5f611d6582611d19565b611d6f8185611d23565b9350611d7f818560208601611d33565b611d888161160e565b840191505092915050565b5f81519050919050565b5f82825260208201905092915050565b5f611db782611d93565b611dc18185611d9d565b9350611dd1818560208601611d33565b611dda8161160e565b840191505092915050565b611dee81611b9d565b82525050565b5f60e082019050611e075f83018a611d0a565b8181036020830152611e198189611d5b565b90508181036040830152611e2d8188611d5b565b90508181036060830152611e418187611d5b565b9050611e5060808301866119eb565b81810360a0830152611e628185611dad565b9050611e7160c0830184611de5565b98975050505050505050565b5f81905092915050565b5f611e9182611d19565b611e9b8185611e7d565b9350611eab818560208601611d33565b80840191505092915050565b5f611ec28284611e87565b915081905092915050565b7f466163746f72793a206661696c656420746f2066696e6420696d706c656d656e5f8201527f746174696f6e0000000000000000000000000000000000000000000000000000602082015250565b5f611f27602683611d23565b9150611f3282611ecd565b604082019050919050565b5f6020820190508181035f830152611f5481611f1b565b9050919050565b7f466163746f72793a206465706f736974566572696669657220616464726573735f8201527f2069732072657175697265640000000000000000000000000000000000000000602082015250565b5f611fb5602c83611d23565b9150611fc082611f5b565b604082019050919050565b5f6020820190508181035f830152611fe281611fa9565b9050919050565b7f466163746f72793a2077697468647261775665726966696572206164647265735f8201527f7320697320726571756972656400000000000000000000000000000000000000602082015250565b5f612043602d83611d23565b915061204e82611fe9565b604082019050919050565b5f6020820190508181035f83015261207081612037565b9050919050565b7f466163746f72793a2062617463685665726966696572206164647265737320695f8201527f7320726571756972656400000000000000000000000000000000000000000000602082015250565b5f6120d1602a83611d23565b91506120dc82612077565b604082019050919050565b5f6020820190508181035f8301526120fe816120c5565b9050919050565b7f466163746f72793a2062617463685769746864726177566572696669657220615f8201527f6464726573732069732072657175697265640000000000000000000000000000602082015250565b5f61215f603283611d23565b915061216a82612105565b604082019050919050565b5f6020820190508181035f83015261218c81612153565b9050919050565b7f466163746f72793a206661696c656420746f20636c6f6e6520696d706c656d655f8201527f6e746174696f6e00000000000000000000000000000000000000000000000000602082015250565b5f6121ed602783611d23565b91506121f882612193565b604082019050919050565b5f6020820190508181035f83015261221a816121e1565b9050919050565b61222a81611761565b82525050565b61012082015f8201516122455f850182612221565b5060208201516122586020850182612221565b50604082015161226b6040850182612221565b50606082015161227e6060850182612221565b5060808201516122916080850182612221565b5060a08201516122a460a0850182612221565b5060c08201516122b760c0850182612221565b5060e08201516122ca60e0850182612221565b506101008201516122df610100850182612221565b50505050565b5f610180820190508181035f8301526122fe8187611d5b565b905081810360208301526123128186611d5b565b905061232160408301856119eb565b61232e6060830184612230565b95945050505050565b7f466163746f72793a20696d706c656d656e746174696f6e2061646472657373205f8201527f6973207265717569726564000000000000000000000000000000000000000000602082015250565b5f612391602b83611d23565b915061239c82612337565b604082019050919050565b5f6020820190508181035f8301526123be81612385565b9050919050565b7f466163746f72793a2076657269666965722061646472657373206973207265715f8201527f7569726564000000000000000000000000000000000000000000000000000000602082015250565b5f61241f602583611d23565b915061242a826123c5565b604082019050919050565b5f6020820190508181035f83015261244c81612413565b9050919050565b5f6020820190508181035f83015261246b8184611dad565b905092915050565b5f819050919050565b61248581612473565b82525050565b5f60408201905061249e5f83018561247c565b6124ab602083018461247c565b939250505056fea26469706673582212201c331fdbb6ca89199bfbb6d6428fe08b9d0a6c63ccc0368f93a144967e5d305a64736f6c634300081e0033",
  "linkReferences": {},
  "deployedLinkReferences": {}
}